{
  "_format": "hh-sol-artifact-1",
  "contractName": "MockExchange",
  "sourceName": "contracts/MockExchange.sol",
  "abi": [
    {
      "inputs": [
        {
          "internalType": "address",
          "name": "_krwToken",
          "type": "address"
        },
        {
          "internalType": "address",
          "name": "_btcToken",
          "type": "address"
        }
      ],
      "stateMutability": "nonpayable",
      "type": "constructor"
    },
    {
      "inputs": [],
      "name": "btcToken",
      "outputs": [
        {
          "internalType": "address",
          "name": "",
          "type": "address"
        }
      ],
      "stateMutability": "view",
      "type": "function"
    },
    {
      "inputs": [
        {
          "internalType": "uint256",
          "name": "amount",
          "type": "uint256"
        },
        {
          "internalType": "uint256",
          "name": "price",
          "type": "uint256"
        },
        {
          "internalType": "string",
          "name": "_symbol",
          "type": "string"
        }
      ],
      "name": "buyToken",
      "outputs": [],
      "stateMutability": "nonpayable",
      "type": "function"
    },
    {
      "inputs": [
        {
          "internalType": "address",
          "name": "user",
          "type": "address"
        }
      ],
      "name": "getMyOrders",
      "outputs": [
        {
          "components": [
            {
              "internalType": "address",
              "name": "user",
              "type": "address"
            },
            {
              "internalType": "uint256",
              "name": "amount",
              "type": "uint256"
            },
            {
              "internalType": "uint256",
              "name": "price",
              "type": "uint256"
            },
            {
              "internalType": "enum MockExchange.OrderType",
              "name": "orderType",
              "type": "uint8"
            },
            {
              "internalType": "uint256",
              "name": "timestamp",
              "type": "uint256"
            },
            {
              "internalType": "string",
              "name": "symbol",
              "type": "string"
            }
          ],
          "internalType": "struct MockExchange.Order[]",
          "name": "",
          "type": "tuple[]"
        }
      ],
      "stateMutability": "view",
      "type": "function"
    },
    {
      "inputs": [],
      "name": "getOrders",
      "outputs": [
        {
          "components": [
            {
              "internalType": "address",
              "name": "user",
              "type": "address"
            },
            {
              "internalType": "uint256",
              "name": "amount",
              "type": "uint256"
            },
            {
              "internalType": "uint256",
              "name": "price",
              "type": "uint256"
            },
            {
              "internalType": "enum MockExchange.OrderType",
              "name": "orderType",
              "type": "uint8"
            },
            {
              "internalType": "uint256",
              "name": "timestamp",
              "type": "uint256"
            },
            {
              "internalType": "string",
              "name": "symbol",
              "type": "string"
            }
          ],
          "internalType": "struct MockExchange.Order[]",
          "name": "",
          "type": "tuple[]"
        }
      ],
      "stateMutability": "view",
      "type": "function"
    },
    {
      "inputs": [],
      "name": "krwToken",
      "outputs": [
        {
          "internalType": "address",
          "name": "",
          "type": "address"
        }
      ],
      "stateMutability": "view",
      "type": "function"
    },
    {
      "inputs": [
        {
          "internalType": "uint256",
          "name": "",
          "type": "uint256"
        }
      ],
      "name": "orders",
      "outputs": [
        {
          "internalType": "address",
          "name": "user",
          "type": "address"
        },
        {
          "internalType": "uint256",
          "name": "amount",
          "type": "uint256"
        },
        {
          "internalType": "uint256",
          "name": "price",
          "type": "uint256"
        },
        {
          "internalType": "enum MockExchange.OrderType",
          "name": "orderType",
          "type": "uint8"
        },
        {
          "internalType": "uint256",
          "name": "timestamp",
          "type": "uint256"
        },
        {
          "internalType": "string",
          "name": "symbol",
          "type": "string"
        }
      ],
      "stateMutability": "view",
      "type": "function"
    },
    {
      "inputs": [
        {
          "internalType": "uint256",
          "name": "amount",
          "type": "uint256"
        },
        {
          "internalType": "uint256",
          "name": "price",
          "type": "uint256"
        },
        {
          "internalType": "string",
          "name": "_symbol",
          "type": "string"
        }
      ],
      "name": "sellToken",
      "outputs": [],
      "stateMutability": "nonpayable",
      "type": "function"
    },
    {
      "inputs": [
        {
          "internalType": "address",
          "name": "",
          "type": "address"
        },
        {
          "internalType": "uint256",
          "name": "",
          "type": "uint256"
        }
      ],
      "name": "userOrders",
      "outputs": [
        {
          "internalType": "address",
          "name": "user",
          "type": "address"
        },
        {
          "internalType": "uint256",
          "name": "amount",
          "type": "uint256"
        },
        {
          "internalType": "uint256",
          "name": "price",
          "type": "uint256"
        },
        {
          "internalType": "enum MockExchange.OrderType",
          "name": "orderType",
          "type": "uint8"
        },
        {
          "internalType": "uint256",
          "name": "timestamp",
          "type": "uint256"
        },
        {
          "internalType": "string",
          "name": "symbol",
          "type": "string"
        }
      ],
      "stateMutability": "view",
      "type": "function"
    }
  ],
  "bytecode": "0x608060405234801561001057600080fd5b50604051611d2e380380611d2e8339818101604052810190610032919061011d565b816000806101000a81548173ffffffffffffffffffffffffffffffffffffffff021916908373ffffffffffffffffffffffffffffffffffffffff16021790555080600160006101000a81548173ffffffffffffffffffffffffffffffffffffffff021916908373ffffffffffffffffffffffffffffffffffffffff160217905550505061015d565b600080fd5b600073ffffffffffffffffffffffffffffffffffffffff82169050919050565b60006100ea826100bf565b9050919050565b6100fa816100df565b811461010557600080fd5b50565b600081519050610117816100f1565b92915050565b60008060408385031215610134576101336100ba565b5b600061014285828601610108565b925050602061015385828601610108565b9150509250929050565b611bc28061016c6000396000f3fe608060405234801561001057600080fd5b50600436106100885760003560e01c80639bfafc251161005b5780639bfafc251461011a578063a85c38ef14610138578063b7f4c6c91461016d578063d3284d8e1461018957610088565b8063074bc1011461008d5780631df32ce7146100ab5780632e2dc43e146100c7578063856652e9146100e5575b600080fd5b6100956101b9565b6040516100a29190610ecb565b60405180910390f35b6100c560048036038101906100c09190611076565b6101df565b005b6100cf610434565b6040516100dc9190611344565b60405180910390f35b6100ff60048036038101906100fa9190611392565b6105d4565b6040516101119695949392919061143a565b60405180910390f35b6101226106e2565b60405161012f9190610ecb565b60405180910390f35b610152600480360381019061014d91906114a2565b610706565b6040516101649695949392919061143a565b60405180910390f35b61018760048036038101906101829190611076565b610807565b005b6101a3600480360381019061019e91906114cf565b610a5c565b6040516101b09190611344565b60405180910390f35b600160009054906101000a900473ffffffffffffffffffffffffffffffffffffffff1681565b6000831180156101ef5750600082115b61022e576040517f08c379a000000000000000000000000000000000000000000000000000000000815260040161022590611548565b60405180910390fd5b6000670de0b6b3a764000083856102459190611597565b61024f9190611608565b905060006001826102609190611608565b905060008054906101000a900473ffffffffffffffffffffffffffffffffffffffff1673ffffffffffffffffffffffffffffffffffffffff166323b872dd3330846040518463ffffffff1660e01b81526004016102bf93929190611639565b6020604051808303816000875af11580156102de573d6000803e3d6000fd5b505050506040513d601f19601f8201168201806040525081019061030291906116a8565b610341576040517f08c379a000000000000000000000000000000000000000000000000000000000815260040161033890611721565b60405180910390fd5b600160009054906101000a900473ffffffffffffffffffffffffffffffffffffffff1673ffffffffffffffffffffffffffffffffffffffff1663a9059cbb33876040518363ffffffff1660e01b815260040161039e929190611741565b6020604051808303816000875af11580156103bd573d6000803e3d6000fd5b505050506040513d601f19601f820116820180604052508101906103e191906116a8565b610420576040517f08c379a0000000000000000000000000000000000000000000000000000000008152600401610417906117b6565b60405180910390fd5b61042d8585600086610c3b565b5050505050565b60606002805480602002602001604051908101604052809291908181526020016000905b828210156105cb57838290600052602060002090600602016040518060c00160405290816000820160009054906101000a900473ffffffffffffffffffffffffffffffffffffffff1673ffffffffffffffffffffffffffffffffffffffff1673ffffffffffffffffffffffffffffffffffffffff16815260200160018201548152602001600282015481526020016003820160009054906101000a900460ff16600181111561050a5761050961112f565b5b600181111561051c5761051b61112f565b5b81526020016004820154815260200160058201805461053a90611805565b80601f016020809104026020016040519081016040528092919081815260200182805461056690611805565b80156105b35780601f10610588576101008083540402835291602001916105b3565b820191906000526020600020905b81548152906001019060200180831161059657829003601f168201915b50505050508152505081526020019060010190610458565b50505050905090565b600360205281600052604060002081815481106105f057600080fd5b9060005260206000209060060201600091509150508060000160009054906101000a900473ffffffffffffffffffffffffffffffffffffffff16908060010154908060020154908060030160009054906101000a900460ff169080600401549080600501805461065f90611805565b80601f016020809104026020016040519081016040528092919081815260200182805461068b90611805565b80156106d85780601f106106ad576101008083540402835291602001916106d8565b820191906000526020600020905b8154815290600101906020018083116106bb57829003601f168201915b5050505050905086565b60008054906101000a900473ffffffffffffffffffffffffffffffffffffffff1681565b6002818154811061071657600080fd5b90600052602060002090600602016000915090508060000160009054906101000a900473ffffffffffffffffffffffffffffffffffffffff16908060010154908060020154908060030160009054906101000a900460ff169080600401549080600501805461078490611805565b80601f01602080910402602001604051908101604052809291908181526020018280546107b090611805565b80156107fd5780601f106107d2576101008083540402835291602001916107fd565b820191906000526020600020905b8154815290600101906020018083116107e057829003601f168201915b5050505050905086565b6000831180156108175750600082115b610856576040517f08c379a000000000000000000000000000000000000000000000000000000000815260040161084d90611548565b60405180910390fd5b6000670de0b6b3a7640000838561086d9190611597565b6108779190611608565b905060006001826108889190611608565b9050600160009054906101000a900473ffffffffffffffffffffffffffffffffffffffff1673ffffffffffffffffffffffffffffffffffffffff166323b872dd3330886040518463ffffffff1660e01b81526004016108e993929190611639565b6020604051808303816000875af1158015610908573d6000803e3d6000fd5b505050506040513d601f19601f8201168201806040525081019061092c91906116a8565b61096b576040517f08c379a000000000000000000000000000000000000000000000000000000000815260040161096290611882565b60405180910390fd5b60008054906101000a900473ffffffffffffffffffffffffffffffffffffffff1673ffffffffffffffffffffffffffffffffffffffff1663a9059cbb33836040518363ffffffff1660e01b81526004016109c6929190611741565b6020604051808303816000875af11580156109e5573d6000803e3d6000fd5b505050506040513d601f19601f82011682018060405250810190610a0991906116a8565b610a48576040517f08c379a0000000000000000000000000000000000000000000000000000000008152600401610a3f906118ee565b60405180910390fd5b610a558585600186610c3b565b5050505050565b6060600360008373ffffffffffffffffffffffffffffffffffffffff1673ffffffffffffffffffffffffffffffffffffffff168152602001908152602001600020805480602002602001604051908101604052809291908181526020016000905b82821015610c3057838290600052602060002090600602016040518060c00160405290816000820160009054906101000a900473ffffffffffffffffffffffffffffffffffffffff1673ffffffffffffffffffffffffffffffffffffffff1673ffffffffffffffffffffffffffffffffffffffff16815260200160018201548152602001600282015481526020016003820160009054906101000a900460ff166001811115610b6f57610b6e61112f565b5b6001811115610b8157610b8061112f565b5b815260200160048201548152602001600582018054610b9f90611805565b80601f0160208091040260200160405190810160405280929190818152602001828054610bcb90611805565b8015610c185780601f10610bed57610100808354040283529160200191610c18565b820191906000526020600020905b815481529060010190602001808311610bfb57829003601f168201915b50505050508152505081526020019060010190610abd565b505050509050919050565b60006040518060c001604052803373ffffffffffffffffffffffffffffffffffffffff168152602001868152602001858152602001846001811115610c8357610c8261112f565b5b8152602001428152602001838152509050600281908060018154018082558091505060019003906000526020600020906006020160009091909190915060008201518160000160006101000a81548173ffffffffffffffffffffffffffffffffffffffff021916908373ffffffffffffffffffffffffffffffffffffffff160217905550602082015181600101556040820151816002015560608201518160030160006101000a81548160ff02191690836001811115610d4657610d4561112f565b5b02179055506080820151816004015560a0820151816005019081610d6a9190611aba565b505050600360003373ffffffffffffffffffffffffffffffffffffffff1673ffffffffffffffffffffffffffffffffffffffff16815260200190815260200160002081908060018154018082558091505060019003906000526020600020906006020160009091909190915060008201518160000160006101000a81548173ffffffffffffffffffffffffffffffffffffffff021916908373ffffffffffffffffffffffffffffffffffffffff160217905550602082015181600101556040820151816002015560608201518160030160006101000a81548160ff02191690836001811115610e5c57610e5b61112f565b5b02179055506080820151816004015560a0820151816005019081610e809190611aba565b5050505050505050565b600073ffffffffffffffffffffffffffffffffffffffff82169050919050565b6000610eb582610e8a565b9050919050565b610ec581610eaa565b82525050565b6000602082019050610ee06000830184610ebc565b92915050565b6000604051905090565b600080fd5b600080fd5b6000819050919050565b610f0d81610efa565b8114610f1857600080fd5b50565b600081359050610f2a81610f04565b92915050565b600080fd5b600080fd5b6000601f19601f8301169050919050565b7f4e487b7100000000000000000000000000000000000000000000000000000000600052604160045260246000fd5b610f8382610f3a565b810181811067ffffffffffffffff82111715610fa257610fa1610f4b565b5b80604052505050565b6000610fb5610ee6565b9050610fc18282610f7a565b919050565b600067ffffffffffffffff821115610fe157610fe0610f4b565b5b610fea82610f3a565b9050602081019050919050565b82818337600083830152505050565b600061101961101484610fc6565b610fab565b90508281526020810184848401111561103557611034610f35565b5b611040848285610ff7565b509392505050565b600082601f83011261105d5761105c610f30565b5b813561106d848260208601611006565b91505092915050565b60008060006060848603121561108f5761108e610ef0565b5b600061109d86828701610f1b565b93505060206110ae86828701610f1b565b925050604084013567ffffffffffffffff8111156110cf576110ce610ef5565b5b6110db86828701611048565b9150509250925092565b600081519050919050565b600082825260208201905092915050565b6000819050602082019050919050565b61111a81610eaa565b82525050565b61112981610efa565b82525050565b7f4e487b7100000000000000000000000000000000000000000000000000000000600052602160045260246000fd5b6002811061116f5761116e61112f565b5b50565b60008190506111808261115e565b919050565b600061119082611172565b9050919050565b6111a081611185565b82525050565b600081519050919050565b600082825260208201905092915050565b60005b838110156111e05780820151818401526020810190506111c5565b60008484015250505050565b60006111f7826111a6565b61120181856111b1565b93506112118185602086016111c2565b61121a81610f3a565b840191505092915050565b600060c08301600083015161123d6000860182611111565b5060208301516112506020860182611120565b5060408301516112636040860182611120565b5060608301516112766060860182611197565b5060808301516112896080860182611120565b5060a083015184820360a08601526112a182826111ec565b9150508091505092915050565b60006112ba8383611225565b905092915050565b6000602082019050919050565b60006112da826110e5565b6112e481856110f0565b9350836020820285016112f685611101565b8060005b85811015611332578484038952815161131385826112ae565b945061131e836112c2565b925060208a019950506001810190506112fa565b50829750879550505050505092915050565b6000602082019050818103600083015261135e81846112cf565b905092915050565b61136f81610eaa565b811461137a57600080fd5b50565b60008135905061138c81611366565b92915050565b600080604083850312156113a9576113a8610ef0565b5b60006113b78582860161137d565b92505060206113c885828601610f1b565b9150509250929050565b6113db81610efa565b82525050565b6113ea81611185565b82525050565b600082825260208201905092915050565b600061140c826111a6565b61141681856113f0565b93506114268185602086016111c2565b61142f81610f3a565b840191505092915050565b600060c08201905061144f6000830189610ebc565b61145c60208301886113d2565b61146960408301876113d2565b61147660608301866113e1565b61148360808301856113d2565b81810360a08301526114958184611401565b9050979650505050505050565b6000602082840312156114b8576114b7610ef0565b5b60006114c684828501610f1b565b91505092915050565b6000602082840312156114e5576114e4610ef0565b5b60006114f38482850161137d565b91505092915050565b7f496e76616c696420616d6f756e74206f72207072696365000000000000000000600082015250565b60006115326017836113f0565b915061153d826114fc565b602082019050919050565b6000602082019050818103600083015261156181611525565b9050919050565b7f4e487b7100000000000000000000000000000000000000000000000000000000600052601160045260246000fd5b60006115a282610efa565b91506115ad83610efa565b92508282026115bb81610efa565b915082820484148315176115d2576115d1611568565b5b5092915050565b7f4e487b7100000000000000000000000000000000000000000000000000000000600052601260045260246000fd5b600061161382610efa565b915061161e83610efa565b92508261162e5761162d6115d9565b5b828204905092915050565b600060608201905061164e6000830186610ebc565b61165b6020830185610ebc565b61166860408301846113d2565b949350505050565b60008115159050919050565b61168581611670565b811461169057600080fd5b50565b6000815190506116a28161167c565b92915050565b6000602082840312156116be576116bd610ef0565b5b60006116cc84828501611693565b91505092915050565b7f4b5257207472616e73666572206661696c656400000000000000000000000000600082015250565b600061170b6013836113f0565b9150611716826116d5565b602082019050919050565b6000602082019050818103600083015261173a816116fe565b9050919050565b60006040820190506117566000830185610ebc565b61176360208301846113d2565b9392505050565b7f425443207472616e73666572206661696c656400000000000000000000000000600082015250565b60006117a06013836113f0565b91506117ab8261176a565b602082019050919050565b600060208201905081810360008301526117cf81611793565b9050919050565b7f4e487b7100000000000000000000000000000000000000000000000000000000600052602260045260246000fd5b6000600282049050600182168061181d57607f821691505b6020821081036118305761182f6117d6565b5b50919050565b7f4254432072656365697665206661696c65640000000000000000000000000000600082015250565b600061186c6012836113f0565b915061187782611836565b602082019050919050565b6000602082019050818103600083015261189b8161185f565b9050919050565b7f4b5257207061796f7574206661696c6564000000000000000000000000000000600082015250565b60006118d86011836113f0565b91506118e3826118a2565b602082019050919050565b60006020820190508181036000830152611907816118cb565b9050919050565b60008190508160005260206000209050919050565b60006020601f8301049050919050565b600082821b905092915050565b6000600883026119707fffffffffffffffffffffffffffffffffffffffffffffffffffffffffffffffff82611933565b61197a8683611933565b95508019841693508086168417925050509392505050565b6000819050919050565b60006119b76119b26119ad84610efa565b611992565b610efa565b9050919050565b6000819050919050565b6119d18361199c565b6119e56119dd826119be565b848454611940565b825550505050565b600090565b6119fa6119ed565b611a058184846119c8565b505050565b5b81811015611a2957611a1e6000826119f2565b600181019050611a0b565b5050565b601f821115611a6e57611a3f8161190e565b611a4884611923565b81016020851015611a57578190505b611a6b611a6385611923565b830182611a0a565b50505b505050565b600082821c905092915050565b6000611a9160001984600802611a73565b1980831691505092915050565b6000611aaa8383611a80565b9150826002028217905092915050565b611ac3826111a6565b67ffffffffffffffff811115611adc57611adb610f4b565b5b611ae68254611805565b611af1828285611a2d565b600060209050601f831160018114611b245760008415611b12578287015190505b611b1c8582611a9e565b865550611b84565b601f198416611b328661190e565b60005b82811015611b5a57848901518255600182019150602085019450602081019050611b35565b86831015611b775784890151611b73601f891682611a80565b8355505b6001600288020188555050505b50505050505056fea26469706673582212207ea327ef4fd7e3261eba04cf2d0982c98725f63b16a8c7ec90ff09ef6bc0d85d64736f6c634300081e0033",
  "linkReferences": {},
  "deployedLinkReferences": {}
}